:020000040800F2
:1000000028090020D50100088D400008E1300008D3
:1000100089400008990D0008E14600080000000032
:10002000000000000000000000000000454500083E
:10003000810F000800000000354500084945000810
:10004000EF010008EF010008EF010008EF010008D0
:10005000EF010008EF010008EF010008EF010008C0
:10006000850F0008EF010008EF010008EF0100080C
:10007000EF010008EF010008EF010008EF010008A0
:10008000EF010008EF010008EF010008EF01000890
:10009000EF010008EF010008EF0100088D0F0008D4
:1000A000EF010008EF010008EF010008EF01000870
:1000B000EF010008EF010008EF010008EF01000860
:1000C000EF010008EF010008EF010008EF01000850
:1000D000EF010008EF010008EF0100085D4600088D
:1000E000EF010008EF010008EF01000800F002F83E
:1000F00000F060F814A696E8000CB244B344DA4568
:1001000001D100F057F8BAE80F000FA696E83000CA
:10011000A5EB040504EB0607AAEB0704A7F101070A
:100120004FEA15154FEA3414A4F10104AC4201D38F
:1001300000F040F813F0010F18BFFB1A43F0010361
:1001400000F001F8DBE718479CAA0000BCAA0000F9
:10015000103A24BF78C878C1FAD8520724BF30C8F3
:1001600030C144BF04680C60704700007047000055
:100170000023002400250026103A28BF78C1FBD8B0
:10018000520728BF30C148BF0B607047662909F08D
:10019000A881642900F08C80002070471FB500F012
:1001A00081FC04000020002108F060F8E0601FBD21
:1001B00010B510BD00F07AFD1146FFF7EFFF05F016
:1001C0007FFA00F098FD03B4FFF7F2FF03BC00F0E4
:1001D000DBFD00000948804709480047FEE7FEE7CD
:1001E000FEE7FEE7FEE7FEE7FEE7FEE7FEE7FEE7E7
:1001F00004480549054A064B704700004D45000874
:10020000ED00000828030020280900202805002010
:100210002805002053EA020C23D010B54C1084EAC4
:10022000530404D54042C1F1000138BF491E1B42AE
:1002300004D55242C3F1000338BF5B1E00F02AF917
:1002400014F0804F04D04042C1F1000138BF491E74
:1002500014F0004F04D05242C3F1000338BF5B1EBC
:1002600010BD13B540424FF0000070EB0104B8BF61
:10027000012001F0004100281CBF6FF000414FF049
:10028000FF30AFF300801CBD0FB41CB5074B06AAAE
:100290007B4469460090059800F0EBFB002069461E
:1002A00000F0FAFB1CBC5DF814FB00000508000020
:1002B0002DE9F0410646002410687529314616A53F
:1002C00010D0AFF30080002802DA404213A507E007
:1002D00031688A0701D512A502E0490704D511A5A6
:1002E000012401E0AFF3008000210A2206F1240777
:1002F00009E0B0FBF2FCB0FBF2F302FB1C00303073
:1003000078541846491C0028F3D123462A46304623
:10031000BDE8F04100F041B9000000002D000000F0
:100320002B000000200000002DE9F0474FF0000AEC
:1003300089460446C0F820A02046E1688847002886
:1003400076D0252806D0D4E901219047206A401CA8
:100350002062F1E7E168204600258847C4F81CA028
:1003600006460027C4F818A02A2E09D0304607F008
:1003700039FC38B304EB8708303EC8F8186019E040
:1003800059F8041B204604EB87029161E168884715
:10039000012F064618D1E069002820DA25F0200553
:1003A0001DE0D8F8180000EB800006EB4000303864
:1003B000C8F818002046E1688847064607F012FC96
:1003C0000028EED1012F0AD02E2E08D12046E16858
:1003D00088477F1C0646022F45F02005C4DBA06934
:1003E000002803DA404245F00105A061E80701D08A
:1003F00025F01005B6B1A6F14100192802D8203623
:1004000045F400654A463146204625604D46FFF7D3
:10041000BDFE58B1012806D0ED1D25F0070000F102
:10042000080989E704E005F1040985E730468AE711
:10043000206ABDE8F08740EA010310B59B070FD1A1
:10044000042A0DD310C808C9121F9C42F8D020BA44
:1004500019BA884201D9012010BD4FF0FF3010BDFC
:100460001AB1D30703D0521C07E0002010BD10F8CA
:10047000013B11F8014B1B1B07D110F8013B11F890
:10048000014B1B1B01D1921EF1D1184610BD7047C4
:100490007047704753EA020C00F069802DE9F04B79
:1004A0004FF00006002B1FBFB3FA83F503FA05F4E3
:1004B00024FA05F65E4012BF1643B2FA82F502FA3C
:1004C00005F4C5F120051EBF22FA05FC44EA0C0420
:1004D000203556EA044C4FEA144418BF641C4FF010
:1004E00000084FF00009904271EB030C39D300294A
:1004F00019BFB1FA81F701FA07F6B0FA80F700FAEE
:1005000007F6C7F120071EBF20FA07FC46EA0C06D3
:100510002037B6FBF4FCA7EB0507103F07F01F0BD5
:10052000CBF120062CFA06F60CFA0BFB44BFB346BF
:100530000026202FA4BF5E464FF0000B5BEA060C9E
:1005400008BF4FF0010B19EB0B0948EB0608ABFB9A
:10055000027C06FB02CC0BFB03CCC01B71EB0C0135
:10056000C1E70B46024641464846BDE8F08B13B54D
:10057000084318BF4FF0FF300146AFF30080BDE8DD
:100580001C40704710B500F091FA006810BD10B51E
:10059000044600F08BFA046010BD2DE9F0470D46CB
:1005A00099469246044600F124080168880604D55D
:1005B000E06921F01001216000E00120A84201DD86
:1005C000471B00E00027A1697A1902EB0900081A0D
:1005D000A0612078C00602D42046AFF30080002638
:1005E00008E0D4E901211AF806009047206A401C6F
:1005F000761C20624E45F4DB2078C0060AD52046E2
:10060000AFF3008006E0D4E9012130209047206A52
:10061000401C2062381EA7F10107F4DC07E0D4E992
:10062000012118F805009047206A401C2062281E0E
:10063000A5F10105F3DC2046AFF300802078000629
:1006400002D50220BDE8F0870120FBE72DE9FF4F2E
:100650000C461E464FF0FF378BB0D2E90001DDF8A3
:1006600060800A908A46C1F30A5505B93D460021CB
:1006700008464FF00000BAF1000F00F4400005DA20
:1006800000EB80004FF4400101EA50004FEA90591E
:10069000B9F1010F00DDB9460A9850EA4A000ED0C0
:1006A00044F61050A5F2FF3545432F14B8F1000F62
:1006B0001ED07542291E1EDDC9F100021CE0B8F1F2
:1006C000010F4FF0000001D0302103E0F24305E0BC
:1006D0002154401CB042FBDB304600220021215453
:1006E0000B99C1F80880C1E900200FB0BDE8F08F78
:1006F000BD1B6D1CDEE74A4600DA694206A800F021
:100700005FFA06AB93E8070003AB83E807005046A7
:100710000A9906F023FE8DE80700A0F500501F3867
:1007200000900398002D0ADD42F21F014A4608445A
:10073000002303A90390684607F08CF809E0A0F5B0
:1007400000504A461F38002303A90390684607F06B
:1007500096F88DE807000004000C03D04FF0FF303E
:10076000410800E01046B8F1000F03D000220092CB
:1007700015461EE0751E05D400F09CF93032625516
:100780006D1EF9D5B3460122084302D000227F1C1A
:1007900004E02078302801D100227F1E002A09972A
:1007A00084D01DE0112D07DA00F084F93032625553
:1007B0006D1C50EA0102F5D1084302D00098C8B17F
:1007C0000EE00021681E05E0235C625C6354225445
:1007D000401E491C8142F7DBAB46A81B401E099016
:1007E000002004F80B000B98099AC0F80880C0E9B3
:1007F000002B7AE711264FF0000857E72DE9F04F5C
:1008000088460446D21D22F0070191B0D1E90001CB
:10081000CDE90A0107F06AF902460B98C00F01D032
:100820002D2007E02068810701D52B2002E0202140
:1008300001EAC000032A099001D0072A05DB03461C
:100840004146204600F07CF90BE12078800601D576
:10085000E06900E00620B8F1650F814606D0B8F1E6
:10086000660F18D0B8F1670F70D131E00020B9F1F0
:10087000110F009001DB112301E009F101030AAA25
:1008800001A90CA8FFF7E2FEDDE90C70002609F1D2
:100890000105834647E001204B4600904FF000479A
:1008A0000AAA01A90CA8FFF7D1FEDDE90DB00C9949
:1008B0005D46002610B909F101000D18B9EB0500DD
:1008C00003D4C0F1FF3609F10105A5EB09002BE0C7
:1008D000B9F1010F01DA4FF001090020B9F1110F50
:1008E0000090484601DD112300E003460AAA01A951
:1008F0000CA8FFF7ABFEDDE90C704D4600268346E1
:10090000207800070AD4AB4500DA5D4601A8012D26
:1009100004DD411911F8011C302907D04F4502DAD6
:1009200017F1040F04DA012082460FE06D1EEEE796
:10093000002F02DCED1B3E4403E0781CA84200DDE2
:100940007D1CB81B00F1010A4FF00047207800071A
:1009500003D4AA4501DB4FF0FF3A0021B7F1004F65
:100960000DF143088DF8431024D002202B23002FD3
:1009700001DA7F422D230A21021EA0F1010000DCD2
:100980005FB197FBF1FC97FBF1F201FB1C7C174672
:100990000CF1300C08F801CDEEE7A8F1010003706E
:1009A0002188090501D5452100E06521A0F1010854
:1009B00000F8011C09980FA9A1EB0807FF1D00B161
:1009C0000120411901EBEA70A1693844081A401E60
:1009D000A0612078C00602D42046AFF300800998B9
:1009E00028B1D4E901219047206A401C2062207878
:1009F000C00622D52046AFF300801EE0002E04DBA7
:100A0000B34502DD01A8805D00E03020D4E901217A
:100A10009047206A401C2062761CAAF101005FEA20
:100A2000000A0AD100F03EF8C0680168405CD4E9D1
:100A300001219047206A401C2062281EA5F1010573
:100A4000DCDC07E0D4E9012118F8010B9047206AAB
:100A5000401C2062381EA7F10107F3DC2046AFF3EB
:100A60000080032011B041E601694A1C0261087848
:100A7000704700B58FB0CDE90131002105910549DE
:100A80007944CDE9031011466846FFF74DFC0FB0DD
:100A900000BD0000E5FFFFFF0A6802F8010B0A60D5
:100AA0007047000000487047A000002000487047D1
:100AB0008000002030B5B0F10A0271F100034FEA66
:100AC000900E4EEA817EB0EB0E0061EB91014FEA91
:100AD000101E4EEA017E10EB0E0041EB11114FEAA1
:100AE000102E4EEA016E10EB0E0041EB11214FEA81
:100AF000104E4EEA014E10EB0E0041EB1141401832
:100B000041F100014FEAD00040EA41704FEAD101C3
:100B10004FEA810444EA907410EB800544EB010431
:100B20006D1944EB0404521BA3414FF0000348BF6E
:100B30000A3200D530BD401C41F1000130BD00003B
:100B40002DE9F0411F46044603260168072A01F4F7
:100B5000006004DB08B116A505E016A503E008B1A6
:100B600015A500E015A521F010002060A069C01EA9
:100B7000A0610FB1401EA0612046AFF300804FB1CD
:100B8000D4E9012138469047206A401C2062C01CED
:100B9000206206E0206AFAE7D4E9012115F8010B8A
:100BA0009047761EF8D22046AFF30080BDE8F08172
:100BB0004E414E006E616E00494E4600696E660001
:100BC0002DE9F047814616468AB0354878440DC86D
:100BD0008DE80D0032487844801C03AC0DC884E8D1
:100BE0000D0041F69B300844372190FBF1F290FB59
:100BF000F1F5A5F1800501FB12041B3C02D564420E
:100C0000012000E00020DFF898A080460027FA4489
:100C1000AAF1BE0A0EE0E0070AD03246684607EBAA
:100C2000470101230AEB810106F029FE8DE8070048
:100C300064107F1C002CEED1194F7F44AE3F19E0A9
:100C4000E80715D007EB04100DF1180A90E80E0024
:100C50008AE80E00C068F04201D198190890324627
:100C6000012306A903A806F00AFE03AB83E80700E8
:100C70006D10641C002DE3D14FF00103324669462C
:100C8000B8F1000F03A802D006F0E4FD01E006F081
:100C9000F6FDC9E90001C9F808200AB0BDE8F087EF
:100CA000748B000000487047800000207546FFF7F5
:100CB000F9FFAE4605006946534620F00700854619
:100CC00018B020B5FFF794FABDE820404FF00006B9
:100CD0004FF000074FF000084FF0000BAC46ACE8B7
:100CE000C009ACE8C009ACE8C009ACE8C00921F013
:100CF00007018D46704710B50446AFF300802046CB
:100D0000BDE81040FFF75FBA4FF0013C50F8042BEC
:100D100051F8043B9A4221D1A2EB0C03934313EA0E
:100D2000CC1317D150F8042B51F8043B9A4215D13B
:100D3000A2EB0C03934313EACC130BD150F8042B12
:100D400051F8043B9A4209D1A2EB0C03934313EAF6
:100D5000CC13DBD04FF00000704700BFD01A01BAAF
:100D6000B1FA81F101F0180122FA01F0CB40DBB2B7
:100D7000C0B2C01AC1F120012CFA01F3D11A91437B
:100D800011EAC311E6D1704701491820ABBEFEE756
:100D90002600020070470000FEE700002DE9F04F3A
:100DA00081B040F20020C2F2000003F0C5FB40F227
:100DB0000014C2F20004A06140F29020C2F20000D0
:100DC00003F0BAFB4042E06104F1200004F1240189
:100DD00004F1280204F0C2FDA01C211DA21D02F096
:100DE00061FE04F1080004F10A0104F10C0202F0B2
:100DF00037FE40F2F90040F2FA01C2F20000C2F2FE
:100E0000000100780D7850EA050101D1002015E0BD
:100E100001280FD140F2F400C2F200000068002166
:100E2000C4F2482108F055F8E16A002814BF481CB4
:100E3000481E00E0E06A012D08BF013840F2FB01C6
:100E400040F2FC0210F11E0FD8BF6FF01D00C2F27D
:100E50000001C2F200021E28A8BF1E2009781278E5
:100E600040F2380551EA0203C2F20005E06205D102
:100E700049F69A110022C3F6197110E0236B01297B
:100E800008BF1E3B012A0DD113F1B40FD8BF6FF07C
:100E9000B303782BA8BF782303F11E02002122633D
:100EA000A9610EE013F1960FD8BF6FF09503962B52
:100EB000A8BF9623012923634FF0000114BF012A24
:100EC000A961D4E9061203F00DFC814608F034F95B
:100ED0002A460146D5E9000B5269AD68009207F039
:100EE00081FF0746B4F90200666AB4F906A008F06B
:100EF00023F980463046394608F07EFA06462846F1
:100F0000414608F0ADF905465846314608F0A8F9C3
:100F1000294607F067FF08F0F3F80746504608F047
:100F20000BF9216B0546084608F006F940F2380136
:100F3000C2F20001896906460846294608F090F980
:100F400005460098314608F08BF9294607F04AFF1C
:100F500008F0D6F8C11944F8441F44F8080C381AB0
:100F6000254645F8040D2846214644E9049702F039
:100F70000FFD2868216801B0BDE8F04F02F028BDE0
:100F800070470000042000F007B90000202000F0A6
:100F900003B90000EFF3108072B600BFFEE7000057
:100FA00010B582B040F60004C4F2010420460821C6
:100FB000012200F00BFA6C20019000BF00BF0198E5
:100FC000411E019178B100BF0198411E019150B1BD
:100FD00000BF0198411E019128B100BF0198411E38
:100FE00000280191EAD120460821002202B0BDE884
:100FF000104000F0EBB90000014690F821000228F3
:1010000016D10868D1E90FC3026822F00E0202600F
:10101000026822F001020260012000FA03F2CCF81B
:10102000042081F821000020002281F82020704750
:10103000042088630120002281F8202070470000EE
:1010400090F82110022923D10268116821F00E01C5
:1010500011602F211368C4F202018A4240F2040198
:10106000C4F2020123F00103136015DD3023C4F242
:1010700002039A421CD04423C4F202039A421BD0BA
:101080005823C4F202039A421CD14FF4803321E06A
:1010900004218163012070470823C4F202039A42AD
:1010A0000ED01C23C4F202039A420BD1102311E08C
:1010B0004FF480730EE000BF4FF480530AE000BF8E
:1010C000012307E001F1680C4FF08073624508BF0F
:1010D0004FF480130B60012180F82110426B002136
:1010E00080F8201022B180B590470021BDE88040F3
:1010F00008467047B0B5044600F06EF9054640F268
:101100005400C2F200000078611C18BF044400BF04
:1011100000F062F9401BA042FAD3B0BD10B5202800
:1011200016D0042818BF10BD40F60000C4F201001C
:10113000042100F045F901280ED140F24820C2F206
:101140000000016800224A62BDE8104000F0B4BF10
:10115000BDE81040FFF722BE40F24824C2F200046E
:10116000204600F0DDFF206840F2F004406AC2F241
:101170000004208080B207F013FB4CF29C4246F63C
:101180007203CBF22002C3F6917307F021FB07F044
:1011900083F8606010BD000040F21441C4F2010108
:1011A0000A68024214BF08607047FFF7B7BF00002B
:1011B0002DE9F04F82B00E68002E00F0FD8041F264
:1011C0000042C4F20102042340F2004E904208BFE4
:1011D00003234FF6FF7CC4F2010E00930024012389
:1011E000C1F2100C4FF0000A4FF0000944E000BFBC
:1011F000012704F00C030F229A402BEA020207FA9F
:1012000003F34FEA9A051A4346F825204E6840F248
:101210000C45F202DEF8082054BF22EA080242EA36
:101220000802C4F20105CEF808202A68B30254BFB0
:1012300022EA080242EA08022A60B303DEF8042028
:1012400054BF22EA080242EA0802F303CEF804205F
:10125000DEF800204FF0010354BF22EA080242EA00
:101260000802CEF800200E680AF1010A36FA0AF2E6
:1012700004F1040400F0A08003FA0AFB16EA0B084C
:10128000F1D04E68664511DC122E55D8DFE806F025
:10129000340A444854545454545454545454545494
:1012A000544C5000D1F80C9046E000BF4FF6FF724E
:1012B000C1F2210296420FDC0022C1F211029642D5
:1012C0001AD00022C1F21202964215D00022C1F2B9
:1012D0002102964210D02FE00022C1F22202964253
:1012E0000AD00022C1F23102964205D00022C1F29A
:1012F0003202964220D100BF8A684AB1012A14BF47
:10130000C0F814B0C0F810B04FF0080914E000BFE6
:101310004FF0040910E000BFCA6802F108090BE0B1
:101320004FF0000908E000BFCA6802F1040903E0B9
:10133000CA6802F10C0900BF22460646B8F5807F54
:1013400024BF203A043637680F25954027EA050563
:1013500009FA02F22A433260CA79D2067FF583AFD6
:1013600041F21803C4F202031A68AEF57E7642F029
:1013700001021A601A6802F001020192019A2AF031
:10138000030256F802B040F60002C4F20102904295
:1013900010D040F60042C4F2010290423FF428AF60
:1013A00041F20002C4F20102009F904208BF0227EE
:1013B0001FE700BF00271CE702B0BDE8F08F000068
:1013C0008068084018BF012070470000002A08BF4D
:1013D000090401617047000040F22030C2F20000B1
:1013E00000687047002804BF01207047F0B581B045
:1013F000044690F83D0028B9002084F83C002046BF
:1014000000F050F9242084F83D002068016821F0A4
:1014100001010160016841F400410160016821F4AB
:101420000041016000F014FB636848F2A16CC0F257
:10143000010C40F60011C0F23D0163453CBF48F28B
:101440008041C0F21E01884202D2012001B0F0BDED
:101450004DF68361C4F21B31A0FB01122168970C89
:10146000D1F804E04FF496762EF03F0545EA924518
:101470004D60774348F638160D6AC0F24106A7FB67
:10148000067625F03F07634538BF960C721C3A4339
:101490000A62CA6948F2A0664CF6FF77C0F20106FC
:1014A000B34222EA07020BD801385B00B0FBF3F02D
:1014B00001306FF31F30042898BF04201BE000BFE9
:1014C000A768013857B119277B43B0FBF3F001300F
:1014D0006FF31F3070B100F5804007E003EB43036A
:1014E000B0FBF3F001306FF31F3018B100F500408E
:1014F00001E000BF01201043C8610868D4E9072358
:1015000020F0C000104318430860886848F2FF329A
:1015100004F10C0790438CCF18431043A6698860F0
:10152000C86820F0FF0038433043C860086840F0C6
:101530000100086000202021206484F83D10206311
:1015400084F83E0001B0F0BD2DE9F04383B0994628
:1015500016460F460446FFF73FFF94F83D1020293A
:1015600024D10546206800BF816989071AD5FFF795
:1015700033FF411B20681A29F6D381698907F3D507
:1015800000202021206384F83D1084F83E00216C67
:1015900041F02001216484F83C00022003B0BDE842
:1015A000F08300BF94F83C10012903D1022003B05E
:1015B000BDE8F083012284F83C200368DDE90B18C4
:1015C0000A9ADB0703D1036843F001030360036851
:1015D00023F400630360212084F83D00402084F858
:1015E0003E000020206462626185608D394620855E
:1015F0000020CFF6FF70E062204632464B46CDE930
:10160000008501F06FFD18B1012003B0BDE8F08343
:10161000208D98B9204641462A4601F0C7FD88B37F
:10162000206C0428F0D12068016841F40071016049
:10163000012003B0BDE8F0830004EBD02046414612
:101640002A4601F063FF0028EAD1616A2268084651
:1016500010F8013B1361238D6062581E2085678D51
:10166000013F678557697F07E6D50704E4D04878CE
:101670001061881C6062981E2085618D013961852A
:10168000DAE700BF2068016841F4007101602020A2
:1016900084F83D00002084F83E0084F83C0003B04C
:1016A000BDE8F08310B586B0006845F20042C4F290
:1016B000000200219042049102D006B010BD00BF8C
:1016C00041F21804C4F20204206802A940F00800A4
:1016D0002060206800F00800019001984FF44070ED
:1016E0000290122003900320059040F60040C4F2BF
:1016F0000100FFF75DFD0420C4F20100016841F024
:10170000E06141F002010160606840F40010606037
:10171000606800F400100190019806B010BD000050
:1017200040F2540040F22031C2F20000C2F2000147
:1017300000780A68104408607047000080B542F2E3
:101740000000C4F20200016841F0100101600320B2
:1017500000F08CF80F2000F005F800F027F80020CA
:1017600080BD000070B540F25406C2F2000640F29F
:1017700078013278C2F200014FF47A730968B3FB42
:10178000F2F20446B1FBF2F1084600F089FB0F2C9F
:101790004FF0010508D838B94FF0FF30214600223C
:1017A000002500F037F87460284670BD82B041F221
:1017B0001800C4F202000168022241F00101016038
:1017C000016801F0010101910199416841F08051E6
:1017D0004160406800F08050009000980420C4F2FE
:1017E0000100016862F31A61016002B070470000F5
:1017F000002848BF704700F01F01012202FA01F1E2
:101800001C2202EAD0004EF20012CEF200028150F9
:101810007047000010B54EF60C5CCEF2000CDCF800
:101820000030C3F3022E8EF00704042C28BF0424DA
:10183000BEF103034FF0FF3E0EFA04F438BF00235D
:10184000A14399400EFA03F39A43114300F00F02AB
:1018500000F160430901043A03F56443624400283F
:1018600048BF02F10C03197010BD00004EF60C5178
:10187000CEF200010A684FF6FF031A4060F30A2215
:1018800042F0806040F0FD7008607047002804BF9F
:10189000012070472DE9F04381B042F20008C4F204
:1018A00002080446D8F800000D4600F00700884200
:1018B0000CD2D8F8000020F007002843C8F8000038
:1018C000D8F8000000F00700A8426CD1206841F26F
:1018D00004098107C4F2020917D5410705D5D9F8D3
:1018E000001041F4E061C9F80010010705D5D9F8EE
:1018F000001041F46051C9F80010D9F80010A26836
:1019000021F0F0011143C9F80010C00742D1D8F806
:10191000000000F00700A8420CD9D8F8000020F021
:1019200007002843C8F80000D8F8000000F00700BE
:10193000A84238D12068410707D5D9F80010E268DD
:1019400021F4E0611143C9F80010000708D5D9F867
:101950000000216920F4605040EAC100C9F800008D
:10196000D9F8002002F00C00082841F20020C0F253
:101970007A0051D149F68473C2F38341C0F6000363
:10198000595CD2033CD440F60010C0F23D004843FD
:1019900042E000BF606802280AD001282AD159F825
:1019A000041C890308D4012001B0BDE8F08300BF06
:1019B00059F8041C8901F6D5D9F8001021F003016B
:1019C0000843C9F80000FFF707FD064641F28837D3
:1019D000D9F80000616800F00C00B0EB810F96D0E0
:1019E000FFF7FAFC801BB842F2D9032001B0BDE832
:1019F000F08300BF59F8041C8907D4D5DCE700BF89
:101A0000D9F8002049F68273C2F34042C0F60003C1
:101A10009A5C4843B0FBF2F0D9F8001049F26272C8
:101A2000C1F30311C0F60002515C40F2780220FAC3
:101A300001F140F25800C2F200000068C2F2000258
:101A40001160FFF78FFE002001B0BDE8F0830000B9
:101A500040F2780041F20401C2F20000C4F2020137
:101A60000068096849F27272C1F30221C0F60002EF
:101A7000515CC8407047000040F2780041F2040118
:101A8000C2F20000C4F202010068096849F27272F1
:101A9000C1F3C221C0F60002515CC840704700008B
:101AA000002804BF012070472DE9F04182B00446B0
:101AB000007841F20006C007C4F202060CD070683C
:101AC00000F00C00042840F081803068800303D5CA
:101AD0006068002800F04E81207880071BD5706870
:101AE00010F00C0F09D0706800F00C00082840F0CE
:101AF0008B807068C00300F187803068800703D551
:101B00002069012840F036813068616920F0F800D2
:101B100040EAC10030602078000713D420784007E5
:101B20002CD4E569002D00F02081706800F00C00D5
:101B3000082840F0AF80012D40F00C81012002B058
:101B4000BDE8F081A069002800F08C800020C4F27C
:101B500042200121C0F88014FFF73EFC054600BF7B
:101B6000706A800700F1BA80FFF736FC401B02283C
:101B7000F6D9032002B0BDE8F08100BFF0695FEA4A
:101B8000C00808D4F06940F08050F061F06900F0BE
:101B900080500090009847F20007C4F200073868B0
:101BA000C0054DD4386840F480703860FFF714FCED
:101BB000054600BF3868C00542D4FFF70DFC401B46
:101BC0006428F7D9032002B0BDE8F081706800F006
:101BD0000C00082803D17068C0033FF576AF606839
:101BE000002800F00981B0F5A02F00F01D81B0F5AC
:101BF000803F00F01D81306820F480303060306814
:101C000020F4802017E100BF2069002840F2000086
:101C1000C4F2422000F08C8001210160FFF7DCFB60
:101C2000054600BF306880073FF56EAFFFF7D4FB75
:101C3000401B0228F6D9032002B0BDE8F08100BFA6
:101C4000E068002800F09A80052800F0B1800128A3
:101C500000F0B280306A20F001003062306A20F07B
:101C60000400ACE00020C4F242200021C0F880143F
:101C7000FFF7B2FB054600BF706A80077FF54EAFE5
:101C8000FFF7AAFB401B0228F6D9032002B0BDE8EB
:101C9000F08100BF0027C4F2422700203866FFF71A
:101CA0009BFB022D05460DD13068800140F1D680A6
:101CB000FFF792FB401B02284FF00300F4D902B05B
:101CC000BDE8F081306880014FD5FFF785FB401BF0
:101CD00002284FF00300F5D9F1E700BF40F2780089
:101CE000C2F20000006844F6D351C1F26201A0FBC9
:101CF0000101480A019000BF00BF0198411E002861
:101D000001913FF40BAF00BF0198411E00280191E3
:101D10003FF404AF00BF0198411E002801913FF439
:101D2000FDAE00BF0198411E00280191E4D1F5E607
:101D300000210160FFF750FB054600BF30688007B7
:101D40007FF5E9AEFFF748FB401B02284FF0030088
:101D5000F4D9B4E77068216A00F480328A4209D16C
:101D6000616A00F47010884204D1002002B0BDE81E
:101D7000F08100BF012002B0BDE8F081306A20F0A0
:101D800001003062306A20F004003062FFF724FB6B
:101D9000054641F2883700BF306A800722D5FFF739
:101DA0001BFB401BB8424FF00300F5D987E700BF8B
:101DB000306A40F004003062306A40F00100306266
:101DC000FFF70AFB054641F2883700BF306A8007FB
:101DD00008D4FFF701FB401BB842F7D9032002B03B
:101DE000BDE8F081B8F1000F3FF59BAEF06920F03F
:101DF0008050F06195E600BF306820F4803030609C
:101E0000306820F480203060FFF7E6FA054600BF16
:101E1000306880037FF560AEFFF7DEFA401B642870
:101E20004FF00300F4D94AE7306840F48020306076
:101E3000306840F480303060FFF7CEFA054600BFCE
:101E4000306880033FF548AEFFF7C6FA401B6428B0
:101E5000F6D9032002B0BDE8F08100BF206AB0F5DA
:101E6000803F05D17168A26821F40031114371608F
:101E70007168626A21F47411114308437060012093
:101E80003866FFF7A9FA0446306880013FF56DAF68
:101E9000FFF7A2FA001B02284FF00300F4D90EE767
:101EA000411E0020B0EB116F1CBF012070474EF2A5
:101EB0001002CEF2000251604EF62351CEF2000124
:101EC000F0230B70072190601160704790F83C2060
:101ED000012A04BF02207047B0B501F108053CCDCE
:101EE000D1E900CE23F47C5322F470521A432EF42D
:101EF000F0431A432CF4E0431A4324F4C0431A433A
:101F00002A43C96922F480420368114359640021BD
:101F100080F83C10BDE8B0400846704790F83C207F
:101F2000012A4FF0020236D010B580F83D20026839
:101F3000D2F804E0D2F808C00C682EF070032343F6
:101F400040F2FF74C4F20004A24253600ADCB2F112
:101F5000804F13D040F20043C4F200039A420DD0E8
:101F600011E000BF42F60043C4F201039A4205D0DB
:101F700040F60003C4F200039A4204D149682CF0F1
:101F80008003194391600121002280F83D1080F800
:101F90003C20BDE81040104670470000002804BFF8
:101FA0000120704710B5044690F83D0028B9002084
:101FB00084F83C00204600F067F8022084F83D00D9
:101FC000206840F2FF730268C4F2000342F6004C3E
:101FD0009842C4F2010C15DCB0F1804F1AD040F2E7
:101FE0000041C4F20001884214D0984218DCB0F1DC
:101FF000804F1DD040F20041C4F20001884217D04A
:102000001AE000BF604505D040F60001C4F20001AF
:102010008842EAD1A16822F070020A439842E6DDC4
:10202000604505D040F60001C4F20001884203D1AA
:10203000216922F440720A43A36922F08001D4F896
:1020400004E0E268194360450160C262C0F828E01C
:1020500002D16169CCF8301001214161002084F87F
:10206000461084F83E1084F83F1084F8401084F83D
:10207000411084F8421084F8431084F8441084F826
:10208000451084F83D1010BD006840F20041C4F2D4
:102090000001884218BF704781B041F21C00C4F2B1
:1020A0000200016841F002010160006800F00200D6
:1020B0000090009801B0704790F83D1001291CBFB6
:1020C00001207047022180F83D10006840F2FF7146
:1020D000C4F20001884209DCB0F1804F12D040F216
:1020E0000041C4F2000188420CD012E042F60041E7
:1020F000C4F20101884205D040F60001C4F200019B
:10210000884206D1816801F00701062904BF00203A
:102110007047016841F00101016000207047000034
:102120000146006841F21113026A1A4204D00122EA
:10213000002081F83D207047026A40F244431A4271
:10214000F5D1026822F0010202600122002081F82C
:102150003D20704790F83C20012A4FF0020200F029
:10216000C58080B580F83D20D0F800C04FF677726A
:10217000DCF8083023EA0202CCF808200B684F2B69
:1021800028DC1F2B44DD202B45D0302B43D0402BA7
:1021900040F0AE80D1F804E0C968DCF82030DCF80B
:1021A000202022F00102CCF82020DCF8182022F0B8
:1021B000F00242EA011123F00A0242EA0E02CCF8D0
:1021C0001810CCF82020DCF8081041F0470121F06D
:1021D000300180E06F2B27DDB3F5005F48D0B3F509
:1021E000805F7AD0702B40F08380D1E901E3C96829
:1021F000DCF8082043EA0E0322F47F4243EA01217F
:102200001143CCF80810DCF8081041F0770162E0C7
:102210000BB1102B6CD1DCF8081021F070011943C0
:1022200041F0070157E000BF502B35D0602B5FD144
:10223000D1F804E0C968DCF82030DCF8202022F076
:102240001002CCF82020DCF8182022F4704242EA78
:10225000013123F0A00242EA0E12CCF81810CCF89B
:102260002020DCF8081041F0670121F0100132E075
:10227000D1E901E3C968DCF8082043EA0E0322F43F
:102280007F4243EA01211143CCF80810DCF8081022
:1022900041F480411FE000BFD1F804E0C968DCF8D8
:1022A0002030DCF8202022F00102CCF82020DCF8DD
:1022B000182022F0F00242EA011123F00A0242EA59
:1022C0000E02CCF81810CCF82020DCF8081041F0F1
:1022D000570121F02001CCF808100022012180F8DC
:1022E0003D10002180F83C10BDE88040104670474A
:1022F0000122F3E7002804BF012070472DE9F04FC9
:1023000081B0044690F83D000D4628B9002084F8BD
:102310003C00204600F094F8022084F83D0020683C
:1023200044F20702816840F2FF73914381600268C2
:10233000C4F2000342F6004C9842C4F2010C15DCD2
:10234000B0F1804F1AD040F20041C4F2000188423F
:1023500014D0984218DCB0F1804F1DD040F20041FB
:10236000C4F20001884217D01AE000BF604505D0D2
:1023700040F60001C4F200018842EAD1A16822F0CF
:1023800070020A439842E6DD604505D040F6000140
:10239000C4F20001884203D1216922F440720A4349
:1023A000A36922F08001D4F804E0E2681943604593
:1023B0000160C262C0F828E002D16169CCF8301037
:1023C0004FF00109C0F814908268D0F818E0D0F8F6
:1023D00020C0D5E90038D5E9027B43EA020AAB699F
:1023E0004FF6FF712EEA010E47EA03234FF6FC4732
:1023F000BB43D5E907724BEA0E012E69194341EA46
:10240000072141EA061141EA02312CF022026B69F0
:1024100042EA080242EA0312C0F808A0816102629F
:1024200084F8469084F83E9084F83F9084F8429077
:1024300084F8439084F83D90002001B0BDE8F08F0F
:1024400080B586B0006840F60001C4F20001884201
:102450004FF00001CDE90411CDE902111ED0B0F119
:10246000804F3FD141F21800C4F20200416841F0B0
:1024700001014160416801F0010101910199016888
:1024800041F0040101600068032100F004000190A4
:10249000019840F60000C4F201001CE041F218006F
:1024A000C4F20200416841F004014160416801F05A
:1024B000040101910199016841F00801016000687F
:1024C000C02100F008000190019840F60000C4F21D
:1024D000010000F5806002910021CDE9031102A9FD
:1024E000FEF766FE06B080BD80B590F83E2090F8FD
:1024F0003F3090F842E090F843C004290AD0B9B9BF
:10250000012A4FF0010208BFBEF1010F34D010467E
:1025100080BD00BF012B4FF0010208BFBCF1010FCD
:10252000F5D1022180F83F1080F8431000681EE0CA
:10253000012A4FF0010208BF012BE8D1BEF1010FC3
:10254000E5D1BCF1010FE2D1022280F83E2080F8F3
:102550003F2080F8422080F8432091B10068016A52
:1025600021F001010162016A41F0010101621021C3
:102570006FF0100209E000BF022180F83E1080F8E1
:102580004210006801216FF00102036A1A400262E2
:10259000026A114301620168002241F001010160F9
:1025A000104680BD90F83C30012B04BF02207047DC
:1025B0004FEAB202032A3DD82DE9F043DFE802F0EA
:1025C00002407CB6036842F600461D6A1A6AC4F2ED
:1025D000010622F001021A621A465C6852F818CF0E
:1025E000B3428E68D1F800E025F0020545EA060501
:1025F0000CD1CE68D1E9057824F4407425F00C059F
:1026000026F004063C43354344EA08042CF07307E3
:1026100047EA0E075C609F614F6809695F631D624E
:102620009F6947F008079F619F6927F004079F6132
:10263000ACE000BF0121002280F83C200846704732
:10264000036842F600461D6A1A6AC4F2010622F0C7
:1026500010021A621A46D3F804C052F8184FB34257
:102660008E68D1F800E025F0200545EA06150FD167
:10267000CE68D1E905986FF0400725F0C00507EA5C
:10268000061635432CF4406748EA090647EA860CEB
:1026900024F4E64444EA0E27C3F804C09F614F685F
:1026A00009699F631D629F6947F400679F619F6985
:1026B00027F480679F6168E0036842F600461D6A60
:1026C0001A6AC4F2010622F480721A621A46D3F81A
:1026D00004C052F81CEFB3428E680C6825F40075F4
:1026E00045EA06250FD1CE68D1E90598360240F2B9
:1026F000FF4725F44065BE4335432CF4405748EA74
:10270000090647EA061C2EF073072743C3F804C0E6
:10271000DF614F680969DF631D62DF6947F0080701
:10272000DF61DF6927F00407DF612FE0036842F60D
:102730000047D3F820C01A6AC4F2010722F480527D
:102740001A621A465C6852F81C5FD1F800E08E6885
:10275000BB4204D14F6924F4804444EA87142CF42A
:10276000005747EA063725F4E64646EA0E265C603F
:10277000DE614E6809691E641F62DF6947F4006705
:10278000DF61DF6927F48067DF610902136819439D
:1027900011600021BDE8F043002280F83C2008468B
:1027A00070470000002804BF0120704710B50446A0
:1027B00090F83D0028B9002084F83C00204600F045
:1027C00067F8022084F83D00206840F2FF73026839
:1027D000C4F2000342F6004C9842C4F2010C15DC2E
:1027E000B0F1804F1AD040F20041C4F2000188429B
:1027F00014D0984218DCB0F1804F1DD040F2004157
:10280000C4F20001884217D01AE000BF604505D02D
:1028100040F60001C4F200018842EAD1A16822F02A
:1028200070020A439842E6DD604505D040F600019B
:10283000C4F20001884203D1216922F440720A43A4
:10284000A36922F08001D4F804E0E26819436045EE
:102850000160C262C0F828E002D16169CCF8301092
:1028600001214161002084F8461084F83E1084F86C
:102870003F1084F8401084F8411084F8421084F826
:10288000431084F8441084F8451084F83D1010BDBE
:10289000006842F60041C4F20101884218BF704747
:1028A00081B041F21800C4F20200016841F40061F5
:1028B0000160006800F400600090009801B070476B
:1028C00041B1082910D0042914BF00F1410200F1E0
:1028D0003F020BE090F83E20012A1CBF0120704708
:1028E000022280F83E2013E000F140021278012A13
:1028F0001CBF012070470222082907D0042914BFF9
:1029000080F8412080F83F2002E000BF80F840209E
:10291000006801F01F010122036A8A4023EA0201D4
:102920000162036A42F64441C4F201011A43A1F173
:102930004403984202620FD040F2FF71C4F20001DA
:10294000884213DCB0F1804F1CD040F20041C4F249
:102950000001884216D01AE00A6842F400420A6078
:1029600040F2FF71C4F200018842EBDD42F6004103
:10297000C4F20101884205D040F60001C4F2000112
:10298000884204D1816801F00701062903D001685B
:1029900041F0010101600020704700007047000015
:1029A00070470000B0B582B0044600680168C36893
:1029B000426901F02F05202D03F0200506D12DB12D
:1029C000204602B0BDE8B04001F0C8BD5FEA017C1E
:1029D0001EBF02F0010E03F4907212EB0E0243D1FF
:1029E000226BCD0618D5012A16D113F0100213D090
:1029F00000210191016801914168019101994069AB
:102A000040063BD4A08DE18DE28D002A18BF88429C
:102A100040F0F28102B0B0BD0A0640F1E78013F049
:102A2000800200F0E38094F841102129F2D1A168DE
:102A3000B1F5805F03D12169002900F06382216A2A
:102A40004A1C226209784160E18C01390A04E18460
:102A5000E0D1C16821F08001C160C16841F040014E
:102A6000C16002B0B0BD00BFCA0718BF13F48072C6
:102A700040F0D0804A0700F1D380D8E0E06B0168D5
:102A800049688AB2002AC5D0A38D9A42C2D2E18594
:102A90008069202800F09E80206850E8030F21689C
:102AA00020F4807041E80302DAB1206850E8030F97
:102AB000216820F4807041E8030292B1206850E858
:102AC000030F216820F4807041E803024AB12068B6
:102AD00050E8030F216820F4807041E80302002AC7
:102AE000DAD1206850E8050F216820F0010041E8A4
:102AF0000502C2B3206850E8050F216820F00100EC
:102B000041E805027AB3206850E8050F216820F0FB
:102B1000010041E8050232B3206850E8050F216842
:102B200020F0010041E80502002ADAD11BE000BFD5
:102B3000206850E8050F216820F0400041E80502B8
:102B4000DAB1206850E8050F216820F0400041E824
:102B5000050292B1206850E8050F216820F040007E
:102B600041E805024AB1206850E8050F216820F0CD
:102B7000400041E80502002ADAD1202084F8420012
:102B800000202063206850E8030F216820F0100027
:102B900041E80302DAB1206850E8030F216820F011
:102BA000100041E8030292B1206850E8030F216849
:102BB00020F0100041E803024AB1206850E8030FFA
:102BC000216820F0100041E80302002ADAD1E06B0E
:102BD000FEF712FA02206063A08DE18D401A81B2E7
:102BE000204602B0BDE8B040FFF7D8BE49067FF5E9
:102BF00011AF13F040013FF40DAFC16821F0400167
:102C0000C1602021204684F8411002B0BDE8B040E8
:102C100000F064BA626C42F0010262644A0706D5B1
:102C2000BEF1000F03D0626C42F0020262648A07B8
:102C300006D5BEF1000F03D0626C42F0040262645C
:102C4000BCF1000F06D55EEA050203D0626C42F0CB
:102C500008026264626C002A3FF4DCAE890604D587
:102C60001DB1204601F07AFC20684069616C00F0DB
:102C7000400001F00801401800F0B680206850E8DC
:102C8000030F216820F4907041E80302BAB3206872
:102C900050E8030F216820F4907041E8030272B3FA
:102CA000206850E8030F216820F4907041E8030287
:102CB0002AB3206850E8030F216820F4907041E89F
:102CC0000302002ADAD11AE0206850E8050F2168D3
:102CD00020F0010041E80502DAB1206850E8050F54
:102CE000216820F0010041E8050292B1206850E817
:102CF000050F216820F0010041E805024AB1206873
:102D000050E8050F216820F0010041E80502002A83
:102D1000DAD1206B012824D1206850E8030F216804
:102D200020F0100041E80302DAB1206850E8030FF8
:102D3000216820F0100041E8030292B1206850E8B9
:102D4000030F216820F0100041E803024AB1206817
:102D500050E8030F216820F0100041E80302002A28
:102D6000DAD1202084F842000020206320684069E6
:102D7000400640F1C180206850E8050F216820F02E
:102D8000400041E80502DAB1206850E8050F2168EB
:102D900020F0400041E8050292B1206850E8050F9C
:102DA000216820F0400041E805024AB1206850E85F
:102DB000050F216820F0400041E80502002ADAD121
:102DC000E06B002800F0988044F25151C0F60001F9
:102DD0004163FEF735F900283FF41CAEE06B416B10
:102DE00002B0BDE8B04008472046FFF7D9FD0020FB
:102DF000606402B0B0BD00BF401A00BF216851E856
:102E0000031F226821F4907142E80313BBB32168C9
:102E100051E8031F226821F4907142E8031373B351
:102E2000216851E8031F226821F4907142E80313DE
:102E30002BB3216851E8031F226821F4907142E806
:102E40000313002BDAD11AE0216851E8051F22682C
:102E500021F0010142E80513DBB1216851E8051FAB
:102E6000226821F0010142E8051393B1216851E87D
:102E7000051F226821F0010142E805134BB12168CA
:102E800051E8051F226821F0010142E80513002BDB
:102E9000DAD1202184F8421000212163216851E811
:102EA000031F226821F0100142E80313DBB12168FF
:102EB00051E8031F226821F0100142E8031393B187
:102EC000216851E8031F226821F0100142E8031332
:102ED0004BB1216851E8031F226821F0100142E83C
:102EE0000313002BDAD1022281B22046626302B0C2
:102EF000BDE8B040FFF752BD204602B0BDE8B0408B
:102F0000FFF74EBD216A31F8022B6FF35F2242605A
:102F1000216299E5002804BF0120704710B50446DE
:102F200090F8410028B9002084F84000204600F0C5
:102F300063F8242084F841002068D4E90212C368B1
:102F400023F40053C360036923F440531A4302611E
:102F5000D4E904231143C268194341F20C639A4334
:102F60001143C1604169A26921F44071114343F6E4
:102F70000002C4F201029042416103D0FEF768FDF5
:102F800002E000BFFEF778FDD4E900231921484391
:102F90009900B0FBF1F048F21F5CC5F2EB1CA0FBFE
:102FA0000C314FF69C734909C0F6FF7301FB030017
:102FB000322303EB0010A0FB0C03F02000EA5310B7
:102FC00000EB0110C3F34311084490601069202105
:102FD00020F490401061506920F02A005061D068C0
:102FE00040F40050D0600020606484F8411084F800
:102FF0004210606310BD000070B586B040F600441A
:10300000C4F201040068A4F54441002688420496F5
:1030100002D006B070BD00BF41F21800C4F2020039
:10302000416802AD41F480214160416801F4802192
:1030300001910199016841F0080101600068294689
:1030400000F00800019001984FF480600290022087
:103050000390032005902046FEF7AAF84FF4006085
:10306000CDE90206204629460496FEF7A1F827205E
:1030700000210022FEF7CEFB2720FEF7B9FB06B0A9
:1030800070BD000090F84230202B07D100294FF08E
:10309000010318BF002A05D11846704702231846BD
:1030A000704700BF00230363816222218285C285AD
:1030B000436480F842100169006819B1C16841F4A5
:1030C0008071C160416941F001014161C16841F015
:1030D0002001C1601846704770470000704700002B
:1030E000FEE700002DE9F04383B0044600680D467A
:1030F00001680A9F0B9E41F48071994690460160D9
:1031000020464FF0011100223B46009600F0ACF83B
:1031100050B120680068C00544BF4FF400702064BF
:10312000032003B0BDE8F083206805F0FE010161D3
:103130000221C0F2010120463A46334600F07AF9F6
:1031400020B1012003B0BDE8F08300BF0020029051
:10315000206832464169029180693946029002989E
:10316000204600F0D3F958B1206C0428E9D120683A
:10317000016841F400710160012003B0BDE8F083F3
:103180002068B9F1010F0AD04FEA182101612046E9
:103190003946324600F0BAF90028E5D120685FFAD6
:1031A00088F10161002003B0BDE8F08370B50368C9
:1031B000044653F8140F400711D40E46481C29D07A
:1031C00086BB00BF1868400527D4FEF705F92368C1
:1031D00053F8140F400737D518684007F2D5002080
:1031E00070BD00BF18684007F9D41868400514D4B2
:1031F00018684007F3D4186840050ED418684007D3
:10320000EDD41868400508D4186840074FF0000056
:1032100048BF70BD18684005E4D56FF48060186041
:10322000042012E0154603E053F8140F4007D6D4EB
:1032300018684005F1D4FEF7CFF8401B2368B04270
:10324000F2D958694007EFD42020002120222163C1
:1032500084F83D2084F83E10226C10432064012045
:1032600084F83C1070BD00002DE9F041054600686F
:103270001E46144601F47F0201338FB242D0DDF8BE
:103280001880B2F5803F40F0878040693840C01B0D
:10329000B0FA80F04009A04240F0C8804EB924E066
:1032A00040693840C01BB0FA80F04009A04240F0AD
:1032B000BD80FEF791F8A0EB08012868B142EFD974
:1032C00041693940C91BB1FA81F14909A142E7D1ED
:1032D0009BE000BF40693840C01BB0FA80F0400955
:1032E000A0424FF0000040F0A280FEF775F8286879
:1032F00041693940C91BB1FA81F14909A142E9D1BB
:1033000083E000BFB2F5803F24D100BF416939405E
:10331000C91BB1FA81F14909A14240F08780416996
:103320003940C91BB1FA81F14909A14240F07E80C0
:1033300041693940C91BB1FA81F14909A14275D1EE
:1033400041693940C91BB1FA81F14909A142DDD077
:103350006CE000BF81693940C91BB1FA81F14909AC
:10336000A14263D181693940C91BB1FA81F1490990
:10337000A1425BD181693940C91BB1FA81F1490988
:10338000A14253D181693940C91BB1FA81F1490980
:10339000A142DFD04AE000BF80693840C01BB0FACC
:1033A00080F04009A04241D146B923E0806938400D
:1033B000C01BB0FA80F04009A04237D1FEF70CF8EC
:1033C000A0EB08012868B142F0D981693940C91BD6
:1033D000B1FA81F14909A142E8D116E0806938408B
:1033E000C01BB0FA80F04009A0424FF0000018BFA7
:1033F000BDE8F081FDF7F0FF286881693940C91BFD
:10340000B1FA81F14909A142E8D1002020212863C5
:1034100085F83D1085F83E00296C41F020012964B3
:1034200085F83C000120BDE8F08100BF0020BDE828
:10343000F0810000F0B581B0044600681D46436984
:103440008FB203EA0701B94202D1002001B0F0BDFA
:103450004169164601323FD049053FD4CEB100BF85
:10346000FDF7BAFF411B2068B14203D941693940D9
:10347000B94215D141693940B942E6D0416949059F
:10348000EED52BE041693940B942DED041694905AA
:1034900024D4FDF7A1FF206841693940B942F1D039
:1034A000202023E041693940B942CED04169490525
:1034B00014D441693940B942C7D0416949050DD496
:1034C00041693940B942C0D04169490506D44169D2
:1034D0003940B942B9D041694905E3D5016841F4A1
:1034E000007101606FF4806141610420002120229D
:1034F000216384F83D2084F83E10226C1043206440
:1035000084F83C10012001B0F0BD000070B50368E4
:10351000044653F8140F000611D40E46481C29D057
:1035200086BB00BF1868400527D4FDF755FF236808
:1035300053F8140F000637D518680006F2D500209E
:1035400070BD00BF18680006F9D41868400514D48F
:1035500018680006F3D4186840050ED418680006F1
:10356000EDD41868400508D4186800064FF0000034
:1035700048BF70BD18684005E4D56FF480601860DE
:10358000042012E0154603E053F8140F0006D6D4C9
:1035900018684005F1D4FDF71FFF401B2368B042B7
:1035A000F2D958690006EFD420200021202221639F
:1035B00084F83D2084F83E10226C104320640120E2
:1035C00084F83C1070BD000010B584B041F21800C2
:1035D000C4F20200016840F6004441F008010160B5
:1035E0000068C4F2010400F0080000900098182060
:1035F0000090032003901120019069462046FDF7BA
:10360000D7FD204608210022FDF7E0FE20461021CC
:103610000122FDF7DBFE204608210122FDF7D6FE40
:1036200004B010BD2DE9F04F83B040F60045C4F260
:1036300001050190284610210122FDF7C7FE28460A
:103640000821FDF7BDFE0290284610210022FDF75B
:10365000BDFE284610210122FDF7B8FE28460821AC
:10366000FDF7AEFE8246284610210022FDF7AEFE91
:10367000284610210122FDF7A9FE28460821FDF762
:103680009FFE8346284610210022FDF79FFE284614
:1036900010210122FDF79AFE28460821FDF790FE31
:1036A0000446284610210022FDF790FE28461021EE
:1036B0000122FDF78BFE28460821FDF781FE064614
:1036C000284610210022FDF781FE28461021012204
:1036D000FDF77CFE28460821FDF772FE07462846C6
:1036E00010210022FDF772FE284610210122FDF76D
:1036F0006DFE28460821FDF763FE8046284610210E
:103700000022FDF763FE284610210122FDF75EFE30
:1037100028460821FDF754FE814628461021002244
:10372000FDF754FE019898B1284608210022FDF7C4
:103730004DFE284610210122FDF748FE28461021A3
:103740000022FDF743FE2846082101220DE000BFBC
:10375000284608210122FDF739FE284610210122C2
:10376000FDF734FE284610210022FDF72FFE0298B7
:10377000002818BF0120BAF1000F18BF4FF0010A4E
:103780004AEA40008000BBF1000F18BF4FF0010B68
:1037900040EA4B00002C18BF012420448000002E7A
:1037A00018BF012640EA4600002F18BF0127384401
:1037B0008000B8F1000F18BF4FF0010840EA480040
:1037C000B9F1000F18BF4FF001094844C0B203B06F
:1037D000BDE8F08FB0B540F60044C4F201040546E0
:1037E000C20920460821FDF7F1FD204610210122E3
:1037F000FDF7ECFD204610210022FDF7E7FDC5F3A3
:10380000801220460821FDF7E1FD2046102101220B
:10381000FDF7DCFD204610210022FDF7D7FDC5F3A2
:10382000401220460821FDF7D1FD2046102101223B
:10383000FDF7CCFD204610210022FDF7C7FDC5F3A2
:10384000001220460821FDF7C1FD2046102101226B
:10385000FDF7BCFD204610210022FDF7B7FDC5F3A2
:10386000C00220460821FDF7B1FD204610210122AB
:10387000FDF7ACFD204610210022FDF7A7FDC5F3A2
:10388000800220460821FDF7A1FD204610210122DB
:10389000FDF79CFD204610210022FDF797FDC5F3A2
:1038A000400220460821FDF791FD2046102101220B
:1038B000FDF78CFD204610210022FDF787FD05F065
:1038C000010220460821FDF781FD2046102101223A
:1038D000FDF77CFD204610210022FDF777FD2046F4
:1038E00008210122BDE8B040FDF770BD10B540F6DB
:1038F0000044C4F20104204608210122FDF766FDC0
:10390000204610210122FDF761FD204608210022FA
:10391000FDF75CFD204610210022BDE81040FDF7B8
:1039200055BD000010B540F60044C4F20104204625
:1039300008210022FDF74AFD204610210122FDF753
:1039400045FD204608210122BDE81040FDF73EBD9F
:10395000B0B540F60044C4F201042046082101221B
:10396000FDF734FD204610210122FDF72FFD2046F2
:103970000821FDF725FD0546002820464FF01001DF
:103980004FF0000218BF0125FDF720FD2846B0BD0D
:1039900003684EF2E032B3F5E15FCFF6FF720BDD64
:1039A0004FF4E15303600868B0F5E15F0CDC90422E
:1039B000B8BF0A60704700BF93421346B8BF0360A8
:1039C0000868B0F5E15FF2DD4FF4E1520A6070473C
:1039D0002DE9F04381B040F6004801284FF0000681
:1039E000C4F201080C460746B8BF012600284FF074
:1039F000000240464FF400514FF00005C8BF0122BD
:103A0000FDF7E4FC40464FF480513246FDF7DEFC02
:103A100040F2B819C2F20009002F48BF7F42D9F81E
:103A20000000012C4FF000060764B8BF0126002CEF
:103A3000C8BF012540464FF480412A46FDF7C6FC29
:103A400040464FF400413246FDF7C0FC002C48BF11
:103A50006442D9F80000446301B0BDE8F08300007F
:103A600070B582B014460D4606460DF1020368207B
:103A70003B21062200F096F810B102B070BD00BFE5
:103A8000BDF80210BDF8042009BA090C318011BA42
:103A9000BDF80620090C298011BA090C218002B05A
:103AA00070BD000070B582B014460D4606460DF19B
:103AB000020368204321062200F074F810B102B01E
:103AC00070BD00BFBDF80210BDF8042009BA090C92
:103AD000318011BABDF80620090C298011BA090CF1
:103AE000218002B070BD000010B5FFF76DFD6B20A6
:103AF000802100F08FF86420FDF7FCFA6B20002194
:103B000000F088F81B20182100F084F81C20002108
:103B100000F080F81920092100F07CF81A20032118
:103B200000F078F83820002100F074F86A200021B5
:103B300000F070F82320002100F06CF8372080217D
:103B400000F068F8FFF7D2FED020FFF743FEFFF742
:103B5000FFFE7520FFF73EFEFFF7FAFEFFF7C6FEF9
:103B6000D120FFF737FEFFF7F3FE0020FFF75AFDE5
:103B70000446FFF7D7FE682C1CBF012010BD6B2048
:103B8000012100F047F86C200021002400F042F8E9
:103B90001920092100F03EF81A20032100F03AF81C
:103BA000204610BDF0B581B01C4615460E460746AE
:103BB000FFF79CFE7F00F8B2FFF70CFEFFF7C8FE90
:103BC00030B10124FFF7AEFE204601B0F0BD00BFCA
:103BD0003046FFF7FFFDFFF7BBFEFFF787FE47F01C
:103BE0000100C0B2FFF7F6FDFFF7B2FE06E000BF2E
:103BF0000020FFF717FD04F8010B013DE8B2012892
:103C0000F6D008B10120F4E70024FFF78BFE204630
:103C100001B0F0BDB0B50C460546FFF767FED020F9
:103C2000FFF7D8FDFFF794FE20B1FFF77BFE0120E0
:103C3000B0BD00BF2846FFF7CDFDFFF789FE204647
:103C4000FFF7C8FDFFF784FE0446002818BF0124D3
:103C5000FFF768FE2046B0BDF0B581B01C461546A2
:103C60000E460746FFF742FE7800C0B2FFF7B2FDEE
:103C7000FFF76EFE30B10124FFF754FE204601B07D
:103C8000F0BD00BF3046FFF7A5FDFFF761FE4DB167
:103C900014F8010BFFF79EFDFFF75AFE0028EAD14A
:103CA000013DF5D10024FFF73DFE204601B0F0BDF7
:103CB0002DE9F04F85B04FF0000841F21800CDF823
:103CC0001080C4F20200016840F6000541F01001C6
:103CD00001600168C4F2010501F010010091009932
:103CE0000168002241F02001016001684FF00809DD
:103CF00001F0200100910099016841F00401016088
:103D0000016801F0040100910099016841F0080187
:103D100001600068082100F0080000900098284623
:103D2000FDF754FB05F5806420464FF21801002290
:103D30004FF2180AFDF74AFB40F2000B0420C1F2D3
:103D4000210B01900BF5801001AECDE90208284649
:103D50003146FDF72DFA032001270490284631460D
:103D6000CDF80490CDE90278FDF722FA0220049004
:103D700020463146CDE901A7CDF80C80FDF718FAB1
:103D80002020CDE9010B204631460397FDF710FABC
:103D9000082000210022FDF73DFD0820FDF728FD49
:103DA00005B0BDE8F08F000080B540F2641045F228
:103DB0000041C2F20000C4F2000148F2A0620023F8
:103DC0004FF4804CC0F2010280E80E00C0E9033CD1
:103DD000C0E90533C0E90733FDF704FB002808BF3D
:103DE00080BDBDE88040FDF7D5B8000070B598B043
:103DF00042F6004540F2B810C4F201050021C2F2BB
:103E0000000041F61F421191CDE90F11CDE90D11CE
:103E1000CDE90B11CDE90911CDE90711CDE9051166
:103E2000CDE90311CDE90111C0E90051C0E9021249
:103E3000C0E904118161FEF7B5FC002818BFFDF749
:103E4000A9F840F2B810C2F2000010A9FEF766F817
:103E5000002818BFFDF79EF8602009904FF4E1504C
:103E60000A9040F2B8100024C2F2000009A9002212
:103E7000CDE90B44CDE90D440F94FEF793FB0028E8
:103E800018BFFDF787F840F2B810C2F2000009A988
:103E90000C220A94FEF786FB002818BFFDF77AF87B
:103EA00040F2B8144FF40050C2F20004002606900D
:103EB00001A920460596CDE90366CDE9016608967D
:103EC000FEF704F8002818BFFDF764F8206816967E
:103ED000A84201D018B070BD41F21800C4F202002F
:103EE000016841F004010160006814A900F00400B9
:103EF000139013984FF410601490022015901790AF
:103F0000A5F51050FDF754F918B070BD80B58CB010
:103F100040F200200021C2F200004FF08042C0E9D0
:103F2000002103224FF6FF73CDE903210122CDE9E1
:103F30000011C0E9021301618161CDE90521CDE9DC
:103F40000711CDE909210B9103A9FEF7D3F9002848
:103F500018BFFDF71FF840F20020C2F200006946CA
:103F6000FDF7DCFF002818BFFDF714F80CB080BD8A
:103F700080B586B040F2482040F200420021C2F2F3
:103F80000000C4F2000247234FF6FF7C0591CDE903
:103F90000311CDE90011C0E90023C0E9021C016151
:103FA0008161FDF7FBFF002818BFFCF7F3FF4FF41A
:103FB0008050029040F24820C2F2000002A9FEF7B1
:103FC000C9F8002818BFFCF7E5FF40F24820C2F20C
:103FD00000006946FDF7A2FF002818BFFCF7DAFFD2
:103FE00006B080BD80B58CB040F2902040F6000253
:103FF0000021C2F20000C4F20002C0E90021032245
:104000004FF6FF73CDE903210122CDE90011C0E98C
:10401000021301618161CDE90521CDE90711CDE9E7
:1040200009210B9103A9FEF765F9002818BFFCF7D9
:10403000B1FF40F29020C2F200006946FDF76EFF2A
:10404000002818BFFCF7A6FF0CB080BD80B540F279
:10405000D82044F60001C2F20000C4F2000100239F
:104060004FF00C0C4FF4165280E80E00C0E90333F9
:10407000C0E905C3C361FEF74DFF002808BF80BD3E
:10408000BDE88040FCF786BFFEE70000FEE70000C9
:104090002DE9F04F85B040F2641400254FF480768E
:1040A0000127C2F200040DF1120B0DF113084FF0BD
:1040B000000900BF09F1B0008DF8100004A8CDE997
:1040C000000720467821002201230296FDF73CFAE2
:1040D0000DF11100CDE900072046782100220123CF
:1040E0008DF811500296FDF72FFA10208DF812006E
:1040F0002046782100220123CDE900B70296FDF782
:1041000023FA4FF0000A00BF204678214022012305
:104110008DF81350CDE900870296FDF715FA0AF1E4
:1041200001004FFA80FABAF1FF3FEDDCB9F1070F59
:1041300009F10109BED305B0BDE8F08F80B5C820F4
:10414000FCF7D8FFBDE8804000F02EBB2DE9F04F12
:1041500089B047B2C0F3C010203A01EB400427EA0F
:10416000E7711027A4F1500047EA111601F00F057E
:10417000102BD7B240F0308140F2641B8DF818004C
:104180004FF0010806A8C2F2000B4FF4807CCDE985
:1041900000085846782100220123CDF808C0059474
:1041A000FDF7D2F90DF11900CDE900085846782144
:1041B000002201234FF480748DF819600294FDF7FA
:1041C000C3F90DF11A00CDE9000858467821002204
:1041D00001238DF81A5002944FF48074FDF7B4F95E
:1041E00049F6A2113801C0F60001085C01EB07177F
:1041F0008DF81B0004950DF11B05584678214022CF
:104200000123CDE900580294FDF79EF9787897F8DC
:10421000029097F803A003963E798DF81B0058464C
:10422000782140220123CDE900580294FDF78CF952
:1042300058467821402201238DF81B90CDE9005883
:104240000294FDF781F958467821402201238DF828
:104250001BA0CDE900580294FDF776F95846782165
:10426000402201238DF81B60CDE900580294FDF730
:104270006BF9787978218DF81B005846402201238C
:10428000CDE900580294FDF75FF9B87978218DF8EF
:104290001B00584640220123CDE900580294FDF747
:1042A00053F9F87978218DF81B00584640220123F4
:1042B000CDE900580294FDF747F9059878214F3869
:1042C0008DF81C0007A8CDE90008584600220123FC
:1042D0000294FDF739F9039878218DF81D000DF14E
:1042E0001D00CDE900085846002201230294FDF785
:1042F0002BF9049878218DF81E000DF11E00CDE9F0
:1043000000085846002201230294FDF71DF9387A6F
:104310000DF11F058DF81F0058467821402201231A
:10432000CDE900580294FDF70FF9787A78218DF8DD
:104330001F00584640220123CDE900580294FDF7A2
:1043400003F9B87A78218DF81F00584640220123DE
:10435000CDE900580294FDF7F7F8F87A78218DF846
:104360001F00584640220123CDE900580294FDF772
:10437000EBF8387B78218DF81F0058464022012346
:10438000CDE900580294FDF7DFF8787B78218DF8AD
:104390001F00584640220123CDE900580294FDF742
:1043A000D3F8B87B78218DF81F00584640220123AE
:1043B000CDE900580294FDF7C7F8F87BCDE9005825
:1043C0008DF81F0058467821402201230294FDF702
:1043D000BBF809B0BDE8F08F40F2641B8DF82000F7
:1043E0004FF0010908A8C2F2000B4FF4807ACDE922
:1043F00000095846782100220123CDF808A0FDF7D6
:10440000A3F80DF12100CDE90009584678210022DA
:1044100001238DF82160CDF808A0FDF795F80DF186
:104420002200CDE9000958467821002201238DF8A9
:104430002250CDF808A0FDF787F849F27A7107EB12
:104440004700C0F6000111F8102001EB40058DF87F
:1044500023200DF123075846782140220123CDE97E
:104460000079CDF808A0FDF76FF86878AE78EC78A1
:1044700095F804808DF823005846782140220123C6
:10448000CDE90079CDF808A0FDF75EF8584678210F
:10449000402201238DF82360CDE90079CDF808A0F2
:1044A000FDF752F858467821402201238DF8234029
:1044B000CDE90079CDF808A0FDF746F858467821F7
:1044C000402201238DF82380CDE90079CDF808A0A2
:1044D000FDF73AF8687978218DF823005846402294
:1044E0000123CDE90079CDF808A0FDF72DF809B03A
:1044F000BDE8F08F2DE9F04115461278002A08BF7B
:10450000BDE8F08198460E4607460024F8B2F1B2A5
:10451000D2B24346FFF71AFE0837F8B201347828C2
:10452000E0B288BF02362A5C88BF0027002AEDD19E
:10453000BDE8F0817047000001680022486A4A62C5
:1045400000B2704770470000FDF7EAB870470000FE
:10455000406A0021C185C184FEF722BA81B090F87B
:104560004210222921D183680246B3F5805F09D128
:1045700052F8281F52F8183C002B63D003685B6880
:104580000AE000BF52F8281F13B90369002BF5D0C9
:1045900003685B6803F07F030B70116801311160E1
:1045A000C18D01390A04C18502D001B0704700BF36
:1045B0000168CA6822F02002CA60CA6822F48072C8
:1045C000CA604A6922F001024A61202180F8421043
:1045D00000214163026B012A3CD10163016851E86B
:1045E000031F026821F0100142E80313DBB10168E8
:1045F00051E8031F026821F0100142E8031393B150
:10460000016851E8031F026821F0100142E803131A
:104610004BB1016851E8031F026821F0100142E824
:104620000313002BDAD101680A68D20606D50022EE
:1046300000920A680092496800910099818D01B04A
:10464000FEF7ACB9026852686FF35F2221F8022BC3
:104650008162A5E701B0FEF73FBD000010B540F252
:10466000D820C2F20000FEF79DF940F2F803C2F232
:1046700000035979481EC0B2062819700AD810A143
:1046800011F800E010A10C5C11A213A1125C11F84A
:1046900000C005E04FF0000E002400224FF0000C97
:1046A00040F2D82083F801E09C70DA70591DC2F204
:1046B0000000012283F804C0BDE81040FEF7E2BC10
:1046C00001000000000000000000000001000000E8
:1046D00000000000000001000000010000000000D8
:1046E000FEE700002DE9F04381B040F23805C2F248
:1046F0000005D5F80C800F4600210446C4F248316D
:104700004046164604F006FC81462861381B3044BA
:1047100004F012FD40F20017C2F2000739690446A6
:10472000084604F009FD43F23331C3F6337104F057
:1047300097FD49F69A110646C3F69961204604F0A2
:104740008FFD314604F04EFB04F0DAFC79694BF240
:10475000E0160144CFF6FF76B142C8BF0E4644F6DC
:1047600020618E42A8BF0E463978386101297E61EA
:1047700002BF00267E613E7004F0DEFC0446304637
:1047800004F0DAFC0146484604F06AFD054640465E
:10479000214604F065FD294604F024FB04F0B0FC3A
:1047A00001B0BDE8F0830000F0B583B040F26414BE
:1047B00040F25C07C2F200044FF480750126C2F299
:1047C00000072046782100220123CDE900760295DA
:1047D000FCF7BAFE781CCDE90006204678210022BD
:1047E00001230295FCF7B0FEB81CCDE90006204677
:1047F0007821002201230295FCF7A6FEF81CCDE9E2
:10480000000620467821002201230295FCF79CFE39
:10481000381DCDE9000620467821002201230295AB
:10482000FCF792FE781DCDE9000620467821002293
:1048300001230295FCF788FEB81DCDE9000620464D
:104840007821002201230295FCF77EFEF81DCDE9B8
:10485000000620467821002201230295FCF774FE11
:1048600007F10800CDE90006204678210022012347
:104870000295FCF769FE07F10900CDE90006204624
:104880007821002201230295FCF75EFE07F10A0061
:10489000CDE9000620467821002201230295FCF78D
:1048A00053FE07F10B00CDE90006204678210022D7
:1048B00001230295FCF748FE07F10C00CDE9000644
:1048C00020467821002201230295FCF73DFE07F1E6
:1048D0000D00CDE900062046782100220123029533
:1048E000FCF732FE07F10E00CDE9000620467821E4
:1048F000002201230295FCF727FE07F10F00CDE906
:10490000000620467821002201230295FCF71CFEB8
:1049100007F11000CDE9000620467821002201238E
:104920000295FCF711FE07F11100CDE900062046C3
:104930007821002201230295FCF706FE07F1120000
:10494000CDE9000620467821002201230295FCF7DC
:10495000FBFD07F11300CDE9000620467821002277
:1049600001230295FCF7F0FD07F11400CDE90006E4
:1049700020467821002201230295FCF7E5FD07F18E
:104980001500CDE90006204678210022012302957A
:10499000FCF7DAFD07F11600CDE900062046782184
:1049A000002201230295FCF7CFFD07F11700CDE9A6
:1049B000000620467821002201230295FCF7C4FD61
:1049C00007F11800CDE900062046782100220123D6
:1049D0000295FCF7B9FD07F11900CDE90006204664
:1049E0007821002201230295FCF7AEFD07F11A00A1
:1049F000CDE9000620467821002201230295FCF72C
:104A0000A3FD03B0F0BD0000F0B587B004464CF63E
:104A10000220C0F6E3100DF10605CDF8060068206F
:104A200004212A4602F0EEFB14F040014FF0A300EF
:104A30006FF03F018DF8060008BF6FF05C016FF06A
:104A400037026FF03D0308BF6FF05C0208BF6FF0E4
:104A50005C038DF8071014F4C0716FF03B018DF802
:104A600008208DF8093008BF6FF05C016FF0330249
:104A70006FF0390308BF6FF05C0208BF6FF05C0392
:104A80008DF80A104AF2A3318DF80B20ADF80D1005
:104A90008DF80F0040F6A7200A212A468DF80C3029
:104AA00002F0B0FB2020A60708BF6FF027008DF8AA
:104AB000060040F6B62001212A4602F0A3FBA0061C
:104AC0000CD4C720069048F6B000CCF2C350059035
:104AD0004AF6B820CAF6AA200BE000BF5D20069077
:104AE00049F6B400C3F20D5005904AF6B820C8F656
:104AF000B350049004AA4FF49760092102F082FB9E
:104B000014F4C07F25D06FF04D016FF0740214F4DF
:104B1000807008BF6FF04F0108BF6FF07F026FF029
:104B200049036FF0640508BF6FF04B03002808BF0E
:104B30006FF06F058DF806108DF807200DF1060255
:104B400040F6A22004218DF808308DF8095002F0BB
:104B500059FBE00708D1D8208DF806000DF10602B8
:104B60004FF40B60012150E0F8208DF806000DF1A4
:104B700006024FF40B60012102F044FB0720FA21EA
:104B800000F000FB3F208DF8100004AA4FF4A47041
:104B9000012102F037FB00208DF8100004AA40F23A
:104BA0004F10012102F02EFB4FF4A050ADF8100081
:104BB00004AA4FF4EF70022102F024FB4FF4C84026
:104BC000ADF8100004AA4FF4ED70022102F01AFBB8
:104BD00048F60060C9F2F900049004AA4FF4AE70E0
:104BE000042102F00FFB4FF40060ADF8100004AA9E
:104BF0004FF4AD70022102F005FB4FF40070ADF8E8
:104C0000100004AA4FF4AC70022102F0FBFA6FF01E
:104C10002600002E58BF6FF027008DF806000DF11A
:104C2000060240F23D70012102F0ECFA600752BF2B
:104C30004FF08B304CF2C020CCF2C460049004AA38
:104C400040F69820042102F0DDFA01F0EBFAE006CC
:104C500052BF4FF0A33042F62000C3F6300004905C
:104C600004AA40F69E20042102F0CCFA01F0DAFA00
:104C700040F2E00744F00800C2F200076506B88081
:104C800001F0D0FA062000EAE57114F4C07F18BFE5
:104C9000063114F0140F18BF1031002E18BF043164
:104CA0000020397007B0F0BD49F69C71C0F60001D4
:104CB00040F6F6304FF48062C82301F099B8000046
:104CC0002DE9F04F89B01446DDE912A20F4600210C
:104CD00040F2E009AAF80010C2F2000999F80010A9
:104CE0000DF1040B8046084659461E4601F03AFA7B
:104CF00020B14FF0FF3009B0BDE8F08FB9F804C023
:104D00001CF0140F50D09DF80520B6469DF80410F5
:104D1000BDF8066012049DF8095042EA016132BAFA
:104D20009DF8083041EA1242BDF80A6022602A0468
:104D300042EA036233BA42EA134363609DF80D30DE
:104D40009DF80C60BDF80E501B0443EA06632EBAB2
:104D500043EA16461214A6609DF8116009145243E6
:104D60009DF8105001FB012136041A1446EA05662D
:104D700002FB02113214BDF8120002FB021100BA4C
:104D800001F1714146EA1040B1F1007FE06073D853
:104D9000BAF80000102140F480707646AAF80000AE
:104DA0005FEA4C6004D42AE000215FEA4C6026D51B
:104DB00041F001021BF801001BF8022041F003033F
:104DC00042EA002041F002021BF802201BF80330E7
:104DD000388043EA022041F0040241F005031BF849
:104DE00002201BF80330788043EA0220B880BAF82A
:104DF000000041F0060140F00800AAF800001CF491
:104E0000C07F18D03BF801000BEB010200BA5388B9
:104E1000000CA8F8000018BA9288000CA8F802004C
:104E200010BA000CA8F80400BAF80000063140F0EF
:104E30007000AAF800005FEA8C7016D00BEB010539
:104E40006878EC78C10709D0D9F8082032B104F0AD
:104E50000700411CC4F3C20090476878000704D5DE
:104E6000D9F80C1009B1A0098847304600F022FD9E
:104E7000002009B0BDE8F08F01F0D4F90020AAF8B5
:104E800000004FF0FF3009B0BDE8F08F10B584B0DE
:104E900004460DF1020000F0E7FE40F25C10C2F2A1
:104EA00000000088BDF802C000F00302430754F878
:104EB00022204FF00C0348BF524203EA5003810600
:104EC000E358C0F3811148BF5B4254F82110C0057C
:104ED00048BF49424FEACC3080FB02C480FB03E26A
:104EE00080FB01014FEA9C73800F43EA840C4FEA78
:104EF0009E7340EA810EA00D8DF80400A00B8DF882
:104F00000500A0098DF80600900D8DF80800900BA3
:104F10008DF8090090098DF80A00880D8DF80C00B5
:104F2000880B8DF80D00880943EA82038DF80E0086
:104F300001AA4FF425700C218DF807C08DF80B30B5
:104F40008DF80FE002F05EF904B010BD10B586B028
:104F500004464AF6BB70CDF6DF7005904FF2AA10FA
:104F6000CDF6DF7004904FF2FE20CCF2AB40C82C9F
:104F7000039017D8E0B2C821B1FBF0F0002101384E
:104F80008DF804108DF8050001AA40F216200221C8
:104F900002F038F930B903AA40F6C1200C2102F022
:104FA00031F918B14FF0FF3006B010BD40F260107B
:104FB000C2F200000480002006B010BDF0B581B040
:104FC00040F25C11C2F200010E880C2306F00301CE
:104FD0004EF2093450F8211003EA5603C0F2CA24F5
:104FE000720748BF4942C758C6F3811381FB0412B8
:104FF00050F82350F0054FEA91704FEA925148BFA4
:105000006D428DF80010910B40EA82008DF801107E
:1050100091098DF802108DF803006A464FF4747000
:10502000042102F0EFF8E0B9B00648BF7F42A7FBC9
:105030000401FA1702FB0411800F8A0D40EA810077
:105040008DF800208A0B89098DF801208DF8021057
:105050008DF803006A464FF47570042102F0D2F80F
:1050600020B14FF0FF3001B0F0BD00BF85FB04015F
:10507000800F40EA8100010E8DF80010010C8DF8C0
:105080000110010A8DF802108DF803006A464FF4F2
:105090007670042102F0B6F801B0F0BDB0B582B070
:1050A000054649F25F71C0F60001C5F3C10300F087
:1050B0000300CC5C0A5C8DF8054049F25C748DF805
:1050C0000420C5F38112C0F60004895C205C8DF8D1
:1050D00006108DF80000E05CA15C8DF801008DF8F1
:1050E000021001AA40F22640032102F08BF850BBC7
:1050F0006A4640F22A40032102F084F818BB45F2C8
:105100003660C0F27600019044F22660C0F266007C
:10511000690700901CD4A80622D4E80505D577209D
:105120008DF8060067208DF8020001AA4FF4886010
:10513000032102F067F830B96A4640F2314003219A
:1051400002F060F8B0B14FF0FF3002B0B0BD00BF68
:1051500037208DF8040027208DF80000A806DCD544
:1051600057208DF8050047208DF80100E805D6D4BA
:10517000DBE700BF40F25C10C2F2000005800020B7
:1051800002B0B0BDF0B583B00446B1F5C86F4FF0C2
:10519000FF3057D814F0070254D0084603F0E4FF5C
:1051A0000021C4F2483103F0B5FE05460DF10700B9
:1051B00000F03EFD9DF80700811EC00740EA510245
:1051C000072A4FF0FF303DD80026C4F240664FF06A
:1051D0008D41DFE802F01605370B3737371100BF76
:1051E0000026C4F2C0564FF08C410AE00026C4F2FB
:1051F00040564FF08B4104E00026C4F2C0464FF009
:105200008A41284604F02CF807462846314604F027
:1052100027F803F075FF0646384603F071FF010AD0
:105220008DF808108DF80900300A02A98D1C8DF840
:105230000A00E0078DF80B6006D1A00714D46007C0
:1052400022D4002003B0F0BD02AA4FF4EA7002217C
:1052500001F0D8FF38BB4FF4927002212A4601F0CA
:10526000D1FF00BBE9E700BF02AA4FF4EC700221B6
:1052700001F0C8FFB8B94FF4947002212A4601F03A
:10528000C1FF80B9DBE700BF02AA4FF4EE70022134
:1052900001F0B8FF38B94FF4967002212A4601F0A8
:1052A000B1FF0028CDD04FF0FF3003B0F0BD0000BB
:1052B0002DE9F04F85B040F20007C2F200070C461E
:1052C00005460120D7E90313ADF808001878897C5A
:1052D000164602AB0222FEF7BFFC002840F0C28057
:1052E000C820FBF707FF0020D7E903128DF808005C
:1052F0001078C97B02AB0122FEF7AEFC002840F01B
:10530000B180D7E9031002AB007849790122FEF79A
:10531000A3FC002840F0A680D7E9031002AB007878
:10532000897C0122FEF798FC002840F09B80D7E999
:10533000031002AB0078C97D0122FEF78DFC002826
:1053400040F09080D7E9031002AB00780979012280
:10535000FEF782FC002840F085800C20D7E903127C
:105360008DF808001078097902AB0122FEF774FC71
:10537000002877D10F20FBF7BDFE786BD7E9031229
:10538000407A89788DF80800107802AB0122FEF788
:1053900063FC002866D1786BD7E90312007A49785C
:1053A0008DF80800107802AB0122FEF755FC0028AA
:1053B00058D1786BD7E90312807A002E18BF40F0DD
:1053C000E0008DF808001078897902AB0122FEF721
:1053D00043FC002846D12EB1786BC07A60F01F00E4
:1053E00001E000BF1820D7E903128DF808001078FB
:1053F000C97902AB0122FEF72FFC98BB16B1C82079
:10540000FBF778FE4020D7E903128DF808001078EA
:10541000097902AB0122FEF71FFC18BB7820D7E9FF
:1054200003128DF808001078497902AB0122FEF7CB
:1054300013FCB8B93220FBF75DFE0020D7E9031258
:105440008DF808001078497902AB0122FEF704FCC0
:1054500040B9D7E9031002AB0078897A0222FEF73F
:10546000A1FB28B14FF0FF37384605B0BDE8F08FFB
:10547000BDF808004AF6AB2100BA000C4843C0F35F
:10548000C7420021002AC5E90011A960C4E9001142
:105490000192A16044D0C00C00260DF108095FFA0A
:1054A00080F8D7E903100C220078C97A4B46FEF742
:1054B00079FB0028D6D1BDF80800BDF80C20BDF856
:1054C0000A1090FA80FC92FA82FED4E90030A268B9
:1054D00009BA00EB214002EB2E4103EB2C43A16003
:1054E000BDF81010C4E90030BDF81220BDF80E0060
:1054F00091FA81FEA96892FA82FCD5E90032013660
:1055000000BA01EB2C4AF1B203EB204002EB2E4B28
:105510004145C5E9000BC5F808A0C2D304E000BFAF
:10552000D5E9000BD5F808A0C117090441EA1041DC
:105530000004832200230027FAF76CFEDDF80480C4
:1055400000234246FAF766FE28604FEAEB7000043B
:1055500040EA1B414FEA0B4083220023FAF75AFE30
:1055600042460023FAF756FE68604FEAEA700004EC
:1055700040EA1A414FEA0A4083220023FAF74AFE22
:1055800042460023FAF746FEA860D4E90006A56863
:10559000C117490141EAD061400142460023FAF7B0
:1055A00039FE2060F017400140EAD66170014246A2
:1055B0000023FAF72FFE6060E817400140EAD5614A
:1055C000680142460023FAF725FE4FF48031002897
:1055D000C4BF0021CFF6FF710844A060384605B073
:1055E000BDE8F08F90F9001000290DDD002190F941
:1055F0000320002A10DD002290F90630002B13DD75
:10560000002011430843704718D490F90110002975
:105610001EDD0121EBE700BF12D490F90420002A1F
:105620001EDD0822E8E700BF0CD490F90730002BFC
:105630001EDD402011430843704700BF0421D6E718
:105640002022D9E74FF4807011430843704700BF10
:1056500018D490F9021000291EDD0221C7E700BF0F
:1056600012D490F90520002A1CDD1022C4E700BFE7
:105670000CD490F9080000281ADD8020114308435B
:10568000704700BF0521B2E72822B5E74FF4A070AC
:1056900011430843704700BF4FF0060108BF0721C0
:1056A000A5E700BF4FF0300208BF3822A4E700BFD3
:1056B0004FF4C07008BF4FF4E070114308437047C7
:1056C00090B0FCF73BF800240120CDE90B44CDE974
:1056D000094406900A904FF4E0104FF480310225FF
:1056E0000F9006A8CDE90714CDE90D51FCF7D8F9C4
:1056F00020B1EFF3108072B6FEE700BF0F20CDE9B6
:1057000001054FF48060CDE9040401A8022103944F
:10571000FCF7BCF820B1EFF3108072B6FEE700BFD3
:10572000FEF7C6FAFEF740FBFEF722FCFEF75EFB33
:10573000FEF7ECFBFEF756FCFEF788FCFEF7FEFCDE
:10574000FEF7A6FCFEF7D0F900F0F6F946A200201D
:1057500000211023FEF7CEFE172000210022FCF7C7
:1057600059F81720FCF744F840F2B814C2F20004CC
:1057700020460021FDF7A4F820460C21FDF7A0F8F3
:1057800040F20020C2F200003C21FCF7ADFE40F2E6
:105790009020C2F200003C21FCF7A6FE40F2D82087
:1057A00040F2FD01C2F20000C2F200010122FDF749
:1057B00069FC00200021FEF70BF9FEF769FC40F2BE
:1057C000481440F21C1A40F2241640F2F409C2F2C6
:1057D00000040FF2A008C2F2000A0FF2A80BC2F2F6
:1057E00000062CA7C2F200092EA500BF40F2181037
:1057F000C2F20000026820464146FAF745FD00204B
:10580000002122461023FEF775FEDAF8002020461C
:105810005946FAF739FD0020022122461023FEF7EF
:1058200069FE306803F0B2FA02460B46204639465C
:10583000FAF72AFD0020042122461023FEF75AFE23
:10584000FBF7AEFBD9F8000003F0A0FA02460B46C6
:1058500020462946FAF718FD0020062122460C238F
:10586000FEF748FEC2E700BF496E697420537563B6
:1058700065737300456E636F6465725F4C3A2564AF
:1058800020202000456E636F6465725F523A256484
:1058900020202000726F6C6C3A252E31662020206B
:1058A0000000000064697374616E63653A252E31EF
:1058B0006620200070470000F0B581B040F200057E
:1058C000C2F2000595F8301021B10024204601B045
:1058D000F0BD00BFA97D39B300F0FE0739402E7F2F
:1058E000CC1B95F8200018BF4FF0FF34002F29770C
:1058F00008BF00281ED0687F78B90120D5E90312BF
:105900008DF802001078C97B0DF102030122FEF729
:10591000A3F910B99DF802006877002FD6D000F0E7
:1059200081FC0028D2D02E774FF0FF34204601B002
:10593000F0BD00BF0020D5E903128DF803001078F8
:10594000C97B0DF103030122FEF786F90028BDD1C2
:105950009DF803006877204601B0F0BD2DE9F04FB7
:105960008FB014460D4681460DF129070DF12A0628
:105970000DF132000BA906AA0EABCDE90067FFF7C7
:105980009FF918B101200FB0BDE8F08FBDF82A00D3
:10599000C00503D402200FB0BDE8F08F069807AF12
:1059A0000594D0CF03F0C8FB4FF0425103F058FCF0
:1059B0008046204603F0C0FB4FF0425103F050FCFC
:1059C0008346304603F0B8FB4FF0425103F048FCE9
:1059D0008246384603F0B0FB4FF0425103F040FCE2
:1059E000074658464FF0404103F03AFC0446404613
:1059F0004146CDF8108003F0F5F9514603958046F5
:105A000003F02EFC06462046394603F029FC3146B9
:105A100003F0E8F903F0BAF902F0ECF84AF2666331
:105A2000C4F24C034FF0663202F0D2FE02F034FCB6
:105A3000C9F800005046514603F0D4F906464046E6
:105A4000594603F00DFC05463046394603F008FC84
:105A5000294603F0C7F903F099F9054688465046F0
:105A6000314603F0FDFB06462046594603F0F8FB9D
:105A7000314603F0C1FC4FF07E5103F0B3F903F05F
:105A800085F902460B462846414602F0FBFA4AF2E7
:105A90006668C4F24C084FF06632434602F098FE46
:105AA00002F0FAFB0399049C086020463946B94687
:105AB00003F0D6FB05465846514603F0D1FB294674
:105AC00003F090F9014603F08DF903F05FF9054604
:105AD0000F465846594603F0C3FB0646204621466A
